:020000040800F2
:1000000010BA0020390800083D0600083F06000825
:1000100043060008470600084B06000800000000E1
:100020000000000000000000000000004F06000873
:10003000510600080000000053060008550600089D
:100040005308000853080008530800085308000824
:100050005308000853080008530800085308000814
:100060005308000853080008530800085308000804
:1000700053080008530800085308000853080008F4
:1000800053080008530800085308000853080008E4
:1000900053080008530800085308000853080008D4
:1000A00053080008530800085308000853080008C4
:1000B0004B170108DD900008E19400085308000880
:1000C00053080008530800085308000853080008A4
:1000D00053080008FF300008859400085308000802
:1000E0005308000853080008530800085308000884
:1000F0005308000853080008530800085308000874
:100100005308000853080008B59000085308000879
:10011000530800089F8E0008530800085308000881
:100120005308000853080008530800085308000843
:10013000DFF80CD013F030FE0048004745010008FE
:1001400010BA00201CB500260027B04602F012FFAE
:100150004FF4A06000F082FB4FF4E13002F083FF27
:100160004FF4E13009F02EF94FF4E13008F01AFFB6
:1001700008F0D6FF04F0C1FD0BF080FA0BF0E8F9AF
:10018000E849086880470BF00AFB0BF0C1FBE64921
:1001900001220868E5A10CF068FFE34901224868E4
:1001A000E3A10CF062FF002008F0E3FF0546012DFB
:1001B0000AD14FF6FF7004F063FDDA498868804782
:1001C0004FF6FF7004F05CFD10F0CEFD00F0FF086C
:1001D000B8F1000F01D1022D78D14FF6FF7004F075
:1001E0004FFD4FF47840D3490880D3A010210B462F
:1001F000C822CDE9001032213C2008F00BFE19E0A6
:10020000D1A010210B46C822CDE9001046213C2088
:1002100008F000FEC82002F0EAFE4FF6FF705623F9
:100220004FF48272462100903C2008F047FBC82022
:1002300002F0DDFE10F005F80028E1D1C6A0102183
:100240000B46C822CDE9001046213C2008F0E2FD13
:10025000C4A010210B46C822CDE900105A213C2031
:1002600008F0D8FD10226E21142010F0D8FCC5B281
:1002700018E0C1A010210B46C822CDE900106E2164
:100280003C2008F0C7FDC82002F0B1FE4FF6FF7019
:100290007E23DC226E210090142008F00FFBC82082
:1002A00002F0A5FE002DE4D1B8A010210B46C82213
:1002B000CDE900106E213C2008F0ACFD40F2DC508E
:1002C00002F095FE4FF6FF7004F0DAFC40F2DC50CD
:1002D00002F08DFE002097490880A188628801FB0A
:1002E00002F013F059F8AF4C2246394630460BF075
:1002F000A9F9ADA010210B46C822CDE90010642158
:100300001E2008F087FDACA010210B46C822CDE9C5
:10031000001078211E2008F07DFDABA010210B46B7
:10032000C822CDE900108C211E2008F073FDA9A081
:1003300010210B46C822CDE9001011461E2008F0FE
:1003400069FDA6A010210B46C822CDE90010DC21D2
:100350001E2008F05FFDA4A010210B46C822CDE9A5
:100360000010F0211E2008F055FDA2A010210B4620
:10037000C822CDE900104FF482711E2008F04AFD1A
:100380009EA010210B46C822CDE900104FF49671B3
:10039000962008F03FFDC3E09B480088012873D1F8
:1003A00040F2DC5002F023FE002062490880A18860
:1003B000628801FB02F012F0EFFF7A4C22463946C8
:1003C00030460BF03FF978A010210B46C822CDE94A
:1003D000001064211E2008F01DFD77A010210B469F
:1003E000C822CDE9001078211E2008F013FD76A068
:1003F00010210B46C822CDE900108C211E2008F0E8
:1004000009FD74A010210B46C822CDE90010114649
:100410001E2008F0FFFC71A010210B46C822CDE978
:100420000010DC211E2008F0F5FC6FA010210B4607
:10043000C822CDE90010F0211E2008F0EBFC6DA0D1
:1004400010210B46C822CDE900104FF482711E2006
:1004500008F0E0FC69A010210B46C822CDE900108D
:100460004FF49671962008F0D5FC684810210B4691
:10047000C822CDE9001011466E2008F0CBFC0AF02E
:10048000EAFD002060490880002010210423CDE906
:1004900000105F4864210268AA2008F05CFC00207C
:1004A00010210423CDE900105A4878210268AA20BF
:1004B00008F051FC002010210423CDE9001056481B
:1004C0008C210268AA2008F046FC002053490860ED
:1004D0000AF0C6FF52480088012808D151A013F045
:1004E00099FC0021534802F0F7FA02F04DFE524801
:1004F000006808B90AF005F849480088012808D1C1
:100500004D480068012804D14148006808B10AF04C
:10051000DCF90020424908804FF4FA7002F067FDD0
:100520003AE70000340200200C020020303A0000BC
:10053000313A00006C000020414C49454E54454B77
:100540002053544D333200005344204361726420E1
:100550004661696C656421005344204361726420E4
:100560004F4B0000466F6E74205570646174696E65
:10057000672E2E2E00000000466F6E7420557064AA
:10058000617465204661696C65642100466F6E7414
:1005900020557064617465205375636365737321BE
:1005A00000000000C0630108686967685F707265D9
:1005B00073737572653A00006C6F775F7072657364
:1005C000737572653A00000068656172745F7261EC
:1005D00074653A00574946493A00000070617373E8
:1005E000776F72643A000000697020616464723A47
:1005F00000000000697020706F72740040434A4C24
:10060000555F4E594C000000A0000020BE11002094
:1006100034000020380000203C000020A0012142CE
:100620007200002064666464646464646464646486
:10063000640000000004004088000020704700BFF4
:10064000FEE700BFFEE700BFFEE700BFFEE7704722
:1006500070477047704700000CB500200190009073
:100660006C48006840F480306A49086000BF6948FF
:10067000006800F4003000900198401C0190009840
:1006800018B90198B0F5A06FF1D16248006800F484
:10069000003010B10120009001E00020009000988F
:1006A000012843D15C48006840F010005A490860B6
:1006B0000846006820F0030008600846006840F023
:1006C0000200086053484068524948600846406844
:1006D00048600846406840F48060486008464068CA
:1006E00020F47C1048600846406840F4E8104860F8
:1006F0000846006840F08070086000BF4548006808
:1007000000F000700028F9D04248406820F0030053
:10071000404948600846406840F00200486000BF19
:100720003C48406800F00C000828F9D10CBD10B519
:10073000FFF792FF10BD10B53648006840F0010089
:1007400034490860084640683449084031494860E7
:1007500008460068324908402E490860084600688B
:1007600020F4802008600846406820F4FE004860BD
:100770004FF41F008860FFF7DAFF4FF0006029494F
:10078000086010BD10B5002100200022214B5B68DD
:1007900003F00C0121B1042906D0082928D107E073
:1007A000214B224C236027E01F4B204C236023E089
:1007B000184B5B6803F47010164B5B6803F48032CF
:1007C000022303EB904022B9194B4343174C23609B
:1007D0000DE0104B5B6803F4003323B1144B43432B
:1007E000124C236003E0104B4343104C236003E0A2
:1007F0000D4B0E4C236000BF00BF064B5B68C3F37C
:1008000003130C4CE15C094B1B68CB40074C236085
:1008100010BD000000100240002002400000FFF860
:10082000FFFFF6FE08ED00E000127A000000002055
:1008300000093D00040000200648804706480047A4
:10084000FEE7FEE7FEE7FEE7FEE7FEE7FEE7FEE780
:10085000FEE7FEE737070008310100083149014390
:10086000314A1160704770B5002100230F22C4780F
:1008700004B32D4C246804F4E064C4F5E064210A58
:10088000C1F10403CA40447804FA03F184781440A7
:1008900021430901254C0678A155047804F01F0571
:1008A0000124AC4005786D11AD0005F1E025C5F8D7
:1008B000004109E0047804F01F050124AC401C4D00
:1008C0000678761145F8264070BD1A4A0A40024360
:1008D000154B1B1F1A60704739B1134A121D12685D
:1008E0000243114B1B1D1A6006E00F4A121D1268CD
:1008F00082430D4B1B1D1A607047042808D14FF02E
:10090000E021096941F004014FF0E022116107E0A4
:100910004FF0E021096921F004014FF0E02211615C
:10092000704700000000FA050CED00E000E400E074
:1009300080E100E080FFFF1F10B50446FA488442C2
:1009400008D10121401501F033F80021601501F0B4
:100950002FF817E0F548844208D10121001501F075
:1009600027F80021201501F023F80BE0F04884421D
:1009700008D10121C80301F01BF800214FF4004009
:1009800001F016F810BD30B5024600200023506873
:10099000E84C20400D790C6844EA0524204350605F
:1009A0009068E54C2040D1E902542C434D7944EA4B
:1009B000450420439060D06A20F470000C7C641ED3
:1009C000E4B2234340EA0350D06230BD002101600D
:1009D000017141718160C16001210174704721B1D1
:1009E000826842F00102826003E0826822F0010224
:1009F0008260704721B1826842F48072826003E0B5
:100A0000826822F480728260704710B50023CBB2F6
:100A10001AB144681C43446002E044689C4344604B
:100A200010BD816841F008018160704701460020D7
:100A30008A6802F008020AB1012000E00020704735
:100A4000816841F0040181607047014600208A6896
:100A500002F004020AB1012000E00020704721B139
:100A6000826842F4A002826003E0826822F4A0025D
:100A700082607047014600208A6802F480020AB151
:100A8000012000E00020704710B50A460021002335
:100A9000416821F46041531E41EA4331416010BD79
:100AA00021B1426842F40062426003E0426822F4ED
:100AB000006242607047F0B504460D4600200021F8
:100AC000092D11DDE068A5F10A0606EB46070726A9
:100AD00006FA07F18843A5F10A0606EB460603FA73
:100AE00006F10843E0600CE0206905EB45070726A6
:100AF00006FA07F1884305EB450603FA06F10843B9
:100B00002061072A0FDA606B561E06EB86071F2648
:100B100006FA07F18843561E06EB860605FA06F12B
:100B20000843606322E00D2A0FDA206BD61F06EB24
:100B300086071F2606FA07F18843D61F06EB8606AE
:100B400005FA06F10843206310E0E06AA2F10D0601
:100B500006EB86071F2606FA07F18843A2F10D0669
:100B600006EB860605FA06F10843E062F0BD21B106
:100B7000826842F48012826003E0826822F480126C
:100B8000826070470146C86C80B2704766484C303E
:100B90000068704721B1426842F48062426003E01D
:100BA000426822F480624260704721B1426842F498
:100BB0008052426003E0426822F4805242607047F3
:100BC0000A460021816821F4E041114381607047A9
:100BD00021B1826842F40042826003E0826822F41C
:100BE00000428260704721B1826842F40212826042
:100BF00003E0826822F402128260704701460020FE
:100C00008A6802F400120AB1012000E00020704757
:100C1000F0B504461546002000220026092911DD02
:100C2000E068A1F10A0707EB470C072707FA0CF267
:100C30009043A1F10A0707EB470703FA07F21043B5
:100C4000E0600CE0206901EB410C072707FA0CF289
:100C5000904301EB410703FA07F210432061A06BB8
:100C6000C0F30156EF1C06F1010CA7EB0C0707EBD4
:100C7000870C1F2707FA0CF29043EF1C06F1010CBA
:100C8000A7EB0C0707EB870701FA07F21043A063F5
:100C9000F0BD10B50A4600210023816B21F44011FC
:100CA000531E41EA0351816310BD08B50023009330
:100CB0000090009B0B440093009B1A6008BD08B590
:100CC000024600200090009201F12800009B184489
:100CD00000900098006880B208BD0A460021416873
:100CE000164B194011434160704741628262704760
:100CF0000A460021416821F01F01114341607047FD
:100D000040B109490831096841F40001064A083236
:100D1000116007E004490831096821F40001024A22
:100D20000832116070470000002401400028014093
:100D3000003C0140FFFEF0FFFDF7F1FFFFFD3FFF2C
:100D40000246002013680B400BB1012000E0002098
:100D50007047CA430260704770B502460020002306
:100D600000240B125568CEB205EA060415681D4032
:100D700015B10CB1012000E0002070BD00220A1264
:100D8000D34303607047000001460020FE4A10680C
:100D900000F03800084310607047FB49096821F0F3
:100DA0000801F94A11601146096801431160704752
:100DB000F549096821F01001F34A116011460968EC
:100DC000014311607047F148EF494860F0484860BE
:100DD0007047EE48EC494860ED4848607047EA4883
:100DE000006940F08000E84908617047E648006902
:100DF00040F08000E449086170470420E249C96876
:100E000001F0010109B101200EE0DF49C96801F0DC
:100E1000040109B1022007E0DB49C96801F01001B3
:100E200009B1032000E00420704700B50246042306
:100E3000FFF7E3FF034603E0FFF7DFFF0346521E21
:100E4000012B01D1002AF7D102B90523184600BDB4
:100E500030B5044604254FF43020FFF7E6FF054681
:100E6000042D17D1C848006940F00200C649086146
:100E700008464461006940F0400008614FF43020AA
:100E8000FFF7D3FF0546C048006941F6FD710840F1
:100E9000BD490861284630BD10B504244FF4302008
:100EA000FFF7C3FF0446042C16D1B748006940F091
:100EB0000400B54908610846006940F04000086137
:100EC0004FF43020FFF7B1FF0446AF48006941F608
:100ED000FB710840AC490861204610BD00B50246D0
:100EE0000423FFF78AFF034603E0FFF786FF03466C
:100EF000521E012B01D1002AF7D102B90523184651
:100F000000BD10B504244FF43020FFF7E7FF04467E
:100F1000042C16D19C48006940F004009A490861ED
:100F20000846006940F0400008614FF43020FFF7A8
:100F3000D5FF04469448006941F6FB710840924988
:100F40000861204610BD00208F49C96901F00201E7
:100F500009B1012000E00020704730B5A525042428
:100F6000FFF7F1FF00B100254FF43020FFF75DFFE0
:100F70000446042C3AD185488349886084488860B7
:100F80000846006940F0200008610846006940F00A
:100F9000400008614FF43020FFF747FF0446042C5F
:100FA0001BD17948006941F6DF7108407649086134
:100FB0000846006940F01000086176480580E002AC
:100FC000FFF733FF0446052C10D06F48006941F647
:100FD000EF7108406C49086108E0052C06D06A48AA
:100FE000006941F6EF71084067490861204630BD4D
:100FF00078B506460C46042500200090E802FFF76D
:1010000014FF0546042D24D15F48006940F001001B
:101010005D4908613480E802FFF707FF0546042DAB
:1010200010D1B01C0090200C00990880E802FFF756
:10103000FCFE05465448006941F6FE7108405249DD
:10104000086106E05048006941F6FE7108404E49CB
:101050000861284678BD70B504460D460426F002A6
:10106000FFF7E3FE0646042E11D14748006940F021
:101070000100454908612580F002FFF7D6FE0646CB
:101080004148006941F6FE7108403F490861304619
:1010900070BD70B505460E460424E002FFF7C5FE9C
:1010A0000446042C17D1394837498860384888608D
:1010B0000846006940F0100008612E80E002FFF74A
:1010C000B4FE0446052C06D02F48006941F6EF71A6
:1010D00008402D490861204670BD2DE9F0430446C3
:1010E0004FF6FF763746B046B1460425E443E6B2F4
:1010F000C4F30727C4F307484FEA1469E802FFF76F
:1011000094FE0546042D49D120481F498860204897
:1011100088600846006940F010000861FF2E06D084
:101120001C4808300680E802FFF77FFE0546042DC4
:1011300008D1FF2F06D017480A300780E802FFF7D2
:1011400074FE0546042D0AD1B8F1FF0F07D01148EF
:101150000C30A0F80080E802FFF767FE0546042D7A
:101160000AD1B9F1FF0F07D00A480E30A0F800905D
:10117000E802FFF75AFE0546052D0FD00248006928
:1011800041F6EF71084007E0002002402301674567
:10119000AB89EFCD00F8FF1F664908612846BDE81E
:1011A000F08330B5054604244FF43020FFF73DFEB0
:1011B0000446042C41D160485E4988605F488860DD
:1011C0000846006940F0200008610846006940F0C8
:1011D000400008614FF43020FFF727FE0446042C3E
:1011E00022D15448006941F6DF7108405149086135
:1011F0000846006940F0100008611DB10020504908
:10120000088002E0A5204E4908804FF43020FFF707
:101210000CFE0446052C10D04648006941F6EF71DB
:1012200008404449086108E0052C06D0414800699F
:1012300041F6DF7108403F490861204630BDF0B5F6
:1012400005460E46174604243B483A4988603B4809
:101250008860E002FFF7E9FD0446042C19D1354807
:10126000006940F010003349086147F0F80030434E
:1012700028433349891C0880E002FFF7D6FD044665
:10128000052C06D02B48006941F6EF71084029492A
:1012900008612046F0BD2748C0698008704725488E
:1012A000006A704700202349096801F0200109B154
:1012B000012000E00020704729B11E4A1269024354
:1012C0001C4B1A6104E01B4A12698243194B1A61D4
:1012D000704701460020012908D1164AD26902F060
:1012E00001020AB1012008E0002006E0114AD2689C
:1012F0000A400AB1012000E0002070470D49C86093
:10130000704704200B49C96801F0010109B10120AF
:101310000EE00849C96801F0040109B1022007E0A4
:101320000449C96801F0100109B1032000E004205C
:10133000704700000020024023016745AB89EFCDD4
:1013400000F8FF1F10B50446CC48844208D10121A3
:10135000042000F02DFB0021042000F029FB46E0D2
:10136000C748844208D10121082000F021FB002158
:10137000082000F01DFB3AE0C248844208D1012158
:10138000102000F015FB0021102000F011FB2EE0D2
:10139000BD48844208D10121202000F009FB002132
:1013A000202000F005FB22E0B848844208D101214A
:1013B000402000F0FDFA0021402000F0F9FA16E08C
:1013C000B348844208D10121802000F0F1FA0021C5
:1013D000802000F0EDFA0AE0AE48844207D10121F6
:1013E000801500F0E5FA0021A01500F0E1FA10BD2B
:1013F00010B50121084600F0DBFA0021012000F0C1
:10140000D7FA10BD2DE9F041024600250026002044
:1014100000230024002791F803C00CF00F0591F879
:1014200003C00CF0100CBCF1000F03D091F802C007
:101430004CEA050591F800C0BCF1000F31D01468EA
:1014400000202BE04FF0010C0CFA00F3B1F800C0C3
:101450000CEA03069E4220D183004FF00F0C0CFAD9
:1014600003F7BC4305FA03FC4CEA040491F803C0FB
:10147000BCF1280F06D14FF0010C0CFA00FCC2F8A9
:1014800014C00AE091F803C0BCF1480F05D14FF039
:10149000010C0CFA00FCC2F810C0401C0828D1D383
:1014A0001460B1F800C0BCF1FF0F34DD54680020B7
:1014B0002EE000F1080C4FF0010808FA0CF3B1F827
:1014C00000C00CEA03069E4221D183004FF00F0CAE
:1014D0000CFA03F7BC4305FA03FC4CEA040491F848
:1014E00003C0BCF1280F05D100F1080C08FA0CF874
:1014F000C2F8148091F803C0BCF1480F07D100F185
:10150000080C4FF0010808FA0CF8C2F81080401CD3
:101510000828CED35460BDE8F0814FF6FF710180FA
:10152000022181700421C170704702460020936837
:101530000B400BB1012000E0002070470146886895
:1015400080B2704702460020D3680B400BB10120E7
:1015500000E0002070470146C86880B27047016112
:101560007047416170470AB1016100E04161704715
:10157000C16070474FF480320A43826181618261A9
:1015800082698269704702460020434B18684FF613
:101590008073184040EA021008433F4B18607047C0
:1015A0003E49C8617047F0B50A4600230024002177
:1015B000002500F00046B6F1004F02D1364EF16929
:1015C00001E0354E7168C0F3034583B200F4401664
:1015D000B6F5401F08D121F070612F4E766826F0D5
:1015E00070662D4F7E6012E000F48016B6F5801F05
:1015F00006D1032606FA05F4A14341F0706106E026
:10160000460D360103FA06F6B14341F0706122B18E
:10161000460D360103FA06F6314300F00046B6F1F6
:10162000004F02D11C4EF16101E01B4E7160F0BD14
:1016300030B500228B071C0F0F2303FA04F2164B60
:1016400008338C1053F824309343134C08348D1016
:1016500044F8253023468C1053F824308C07240F8F
:1016600000FA04F423430C4C08348D1044F8253060
:1016700030BD0A49DC3108607047000000080140B5
:10168000000C01400010014000140140001801400E
:10169000001C0140002001400000014000002042E9
:1016A000DF48006840F00100DD49086008464068F6
:1016B000DC490840DA49486008460068DA490840D1
:1016C000D74908600846006820F480200860084672
:1016D000406820F4FE0048604FF41F0088607047A7
:1016E000CF49096821F48031CD4A1160114609685B
:1016F00021F480211160B0F5803F03D0B0F5802F38
:101700000ED106E0C649096841F48031C44A11602F
:1017100007E0C349096841F4A021C14A116000E013
:1017200000BF00BF704710B5014600220023002013
:101730004A11012A02D1BA4C236806E0022A02D1DA
:10174000B74C236A01E0B64C636A01F01F02012422
:1017500094401C400CB1012000E0002010BD38B5C1
:10176000002000900024002500BF3120FFF7DBFFA0
:1017700005460098401C00900098B0F5A06F01D07D
:10178000002DF2D03120FFF7CEFF08B1012400E098
:101790000024204638BD01460020A14A106820F0F0
:1017A000F80040EAC10010607047A0490860704727
:1017B000024600209A4B586820F47C1042EA01034C
:1017C0001843974B58607047984908667047014620
:1017D0000020934A506820F003000843506070478F
:1017E0008F48406800F00C007047014600208C4A8A
:1017F000506820F0F0000843506070470146002018
:10180000874A506820F4E060084350607047014602
:101810000020834A506820F4605040EAC1005060C4
:10182000704729B17E4A527A02437D4B5A7204E0D6
:101830007B4A527A82437A4B5A7270477B49D8313D
:101840000860704701460020754A506820F4404007
:101850000843506070470021714A20321170704A6D
:1018600082F82010012802D004280AD104E00121C6
:101870006B4A2032117005E00521694A203211704F
:1018800000E000BF00BF70476949086070476449C5
:10189000096A0143624A1162704765494439086028
:1018A000704730B500210022002400235C4D6D6894
:1018B00005F00C0121B1042905D0082923D105E048
:1018C0005C4D056022E05B4D05601FE0544D6D6886
:1018D00005F47012524D6D6805F48034022505EB55
:1018E00092421CB9544D554305600BE04C4D6D6858
:1018F00005F400351DB1504D5543056002E04D4DD6
:101900005543056002E04B4D056000BF00BF444DEC
:101910006D6805F0F0010909484D6B5C0568DD4014
:1019200045603F4D6D6805F4E061090A434D6B5C0D
:101930004568DD4085603A4D6D6805F46051C90A1F
:101940003E4D6B5C4568DD40C560354D6D6805F406
:101950004041890B3A4D6B5CC568B5FBF3F50561F9
:1019600030BD29B12E4A526902432D4B5A6104E021
:101970002B4A526982432A4B5A61704729B1284A3F
:1019800092690243264B9A6104E0254A9269824398
:10199000234B9A61704729B1214AD2690243204BF7
:1019A000DA6104E01E4AD26982431D4BDA61704756
:1019B00029B11B4AD2680243194BDA6004E0184A85
:1019C000D2688243164BDA60704729B1144A126913
:1019D0000243134B1A6104E0114A12698243104B0F
:1019E0001A61704712494039086070470F49C8644E
:1019F00070470B49C87170470948406A40F08070D1
:101A000007494862704701460020054A92680A402B
:101A10000AB1012000E00020704701498872704738
:101A2000001002400000FFF8FFFFF6FE00004242F7
:101A30008004424200127A0000093D001400002098
:101A40002400002010B50446BE48844208D101217C
:101A50008014FFF7ADFF0021A014FFF7A9FF16E0E7
:101A6000B948844208D101210014FFF7AEFF0021DC
:101A70002014FFF7AAFF0AE0B448844207D10121ED
:101A8000C013FFF7A2FF0021E013FFF79EFF10BD78
:101A900010B50022028802F441520B884C8823437F
:101AA0008C882343CC8823430C8923434C892343CC
:101AB0008C892343CC8923431A430280838B4FF2C2
:101AC000FF74234083830B8A038210BD2DE9F04FFE
:101AD00085B005460C464FF0000902274FF000087C
:101AE0004FF0010B0026B246A88B4FF24001084090
:101AF000A88302202884B5F81C90A068022801D190
:101B000000BF38E0A08810B94FF0010B01E04FF0A2
:101B1000020B8D48854200D100E000BF6846FFF708
:101B2000C0FEDDF800A0E088B0F5007F0AD14FEAE2
:101B30001A2000EB80004000A168B0FBF1F0401DCE
:101B400086B20BE04FEA4B10BAFBF0F000EB8000DE
:101B50004000A168B0FBF1F0401D86B20A20B6FB40
:101B6000F0F606F00108A6EB0800C0F34F074FF6A9
:101B7000FF7000EA0828022F01DBFF2F02DD022799
:101B80004FF00008E08840EA080038432884A08825
:101B9000A1890843618808432188084340F4006014
:101BA00040EA0909A5F81C9005B0BDE8F08F0021B6
:101BB000018041808180C180018141818181C18119
:101BC0000721018270470021018041808180C1800E
:101BD0000221816000218181704721B1028842F099
:101BE0004002028004E002884FF6BF731A40028070
:101BF000704721B1828B42F48062828304E0828B41
:101C00004FF6FF331A408283704730B5002400231B
:101C10000C110125A540ABB21AB185881D43858002
:101C200002E085889D43858030BD1AB183880B43CF
:101C3000838002E083888B43838070478181704773
:101C40000146888970474FF6FF62914204D00288AE
:101C500042F48072028004E002884FF6FF631A406B
:101C60000280704721B1828842F00402828004E041
:101C700082884FF6FB731A408280704702884FF2C9
:101C8000FF731A40028002880A430280704701886D
:101C900041F480510180704721B1028842F4005222
:101CA000028004E002884DF6FF731A4002807047FC
:101CB00002460020012901D0108B00E0908A704775
:101CC0000146088A7047B1F5804F04D1028842F47A
:101CD0008042028004E002884BF6FF731A400280C3
:101CE00070470246002013890B400BB1012000E031
:101CF00000207047CA4302817047F0B502460020B9
:101D000000240023002501F00F070126BE40B4B2D5
:101D10000B1101269E40B3B2968806EA0305168988
:101D2000264016B10DB1012000E00020F0BD10B535
:101D3000002201F00F040123A3409AB2D343038190
:101D400010BD00000030014000380040003C004061
:101D500010B50446FE48844208D10121C014FFF7A3
:101D600027FE0021E014FFF723FEC4E0B4F1804F0A
:101D700008D101210846FFF728FE00210120FFF7C6
:101D800024FEB8E0F348844208D101210220FFF785
:101D90001CFE00210220FFF718FEACE0EE48844252
:101DA00008D101210420FFF710FE00210420FFF7D5
:101DB0000CFEA0E0E948844208D101210820FFF789
:101DC00004FE00210820FFF700FE94E0E44884426E
:101DD00008D101211020FFF7F8FD00211020FFF7A6
:101DE000F4FD88E0DF48844208D101212020FFF77C
:101DF000ECFD00212020FFF7E8FD7CE0DA4884427A
:101E000008D101214014FFF7D3FD00216014FFF732
:101E1000CFFD70E0D548844209D10121C804FFF705
:101E2000C7FD00214FF40020FFF7C2FD63E0D0485A
:101E3000844209D101210805FFF7BAFD00214FF4C2
:101E40008010FFF7B5FD56E0CA48844209D1012150
:101E50004805FFF7ADFD00214FF40010FFF7A8FD86
:101E600049E0C548844208D101214020FFF7ADFD7B
:101E700000214020FFF7A9FD3DE0C048844208D181
:101E800001218020FFF7A1FD00218020FFF79DFDAB
:101E900031E0BB48844208D101218015FFF795FD50
:101EA0000021A015FFF791FD25E0B648844209D135
:101EB00001210804FFF77CFD00214FF48030FFF77B
:101EC00077FD18E0B048844209D101214804FFF7AA
:101ED0006FFD00214FF40030FFF76AFD0BE0AB48C7
:101EE000844208D101218804FFF762FD00214FF4EC
:101EF0008020FFF75DFD10BD00220288944B9842C0
:101F00000ED0994B98420BD0B0F1804F08D0914B36
:101F1000984205D0904B984202D0904B984204D101
:101F20004FF68F731A404B881A438D4B984207D057
:101F30008C4B984204D04FF6FF431A40CB881A438B
:101F400002808B8883850B880385814B98420BD058
:101F5000854B984208D08B4B984205D08A4B9842CB
:101F600002D08A4B984201D10B7A038601238382E7
:101F7000704770B5002400220023058C4FF6FE76D2
:101F800035400584028C8388048B4FF68F752C4076
:101F9000B51E2C400D882C43751E2A400D892A43FE
:101FA0004D882A436A4DA8420BD06F4DA84208D0F5
:101FB000744DA84205D0744DA84202D0734DA8427A
:101FC00013D14FF6F7752A404D892A434FF6FB751A
:101FD0002A408D882A434FF6FF652B404FF6FF5568
:101FE0002B408D892B43CD892B4383800483CD885F
:101FF0008586028470BD70B5002400220023058C04
:102000004FF6EF7635400584028C8388048B48F6C2
:10201000FF752C404FF6FF452C400D884FF6FF769C
:1020200006EA05252C434FF6DF752A400D8906EA9E
:1020300005152A434D8806EA05152A43444DA84252
:1020400002D0494DA8421DD14FF67F752A404D89D7
:102050004FF6FF7606EA05152A434FF6BF752A406C
:102060008D8806EA05152A434FF6FF352B404FF2BF
:10207000FF752B408D8906EA85052B43CD8906EA3D
:1020800085052B4383800483CD880587028470BD3A
:1020900070B5002400220023058C4FF6FF66354002
:1020A0000584028C8388848B4FF68F752C404FF605
:1020B000FC752C400D882C434FF6FF552A400D89A6
:1020C0004FF6FF7606EA05252A434D8806EA0525E0
:1020D0002A431F4DA84202D0234DA8421DD14FF2E2
:1020E000FF752A404D894FF6FF7606EA05252A43FB
:1020F0004FF6FF352A408D8806EA05252A434EF61D
:10210000FF752B404DF6FF752B408D8906EA0515AE
:102110002B43CD8906EA05152B4383808483CD8824
:102120008587028470BD70B5002200230024058CD1
:102130004EF6FF7635400584038C8488828B48F602
:10214000FF752A404FF6FF452A400D8820E0000029
:10215000002C01400004004000080040000C00403A
:10216000001000400014004000340140004C0140C9
:10217000005001400054014000180040001C004085
:102180000020004000400140004401400048014060
:102190004FF6FF7606EA05252A434DF6FF752B40DC
:1021A0000D8906EA05352B434D8806EA05352B4394
:1021B000FA4DA84202D0FA4DA84208D14BF6FF755D
:1021C0002C408D894FF6FF7606EA85152C438480D6
:1021D0008283CD88A0F84050038470BD828B4FF27B
:1021E000FF331A408283828B4FF6FF7303EA012389
:1021F0001A4382837047F0B50C4615460022002131
:102200000026078C4EF6FF7C07EA0C070784828BBA
:10221000018C4FF6FF7707EA043640F6FF473A4055
:102220004FF6FF7707EA05273A434FF6FF7707EAAD
:1022300003373A43D94FB8420ED0D94FB8420BD0EA
:10224000B0F1804F08D0D74FB84205D0D64FB84232
:1022500002D0D64FB84206D14DF6FF77394046F44A
:102260008057394305E047F6FF57394044F480571B
:10227000394382830184F0BD828B4FF6F3731A4099
:102280008283828B0A4382837047F0B50C461546E1
:10229000002200210026078C4FF6FF6C07EA0C078E
:1022A0000784828B018C4FF6FF7707EA04264FF6EE
:1022B0000C773A404FF6FF7707EA03172F433A436C
:1022C000B64FB8420ED0B64FB8420BD0B0F1804FE7
:1022D00008D0B44FB84205D0B34FB84202D0B34F84
:1022E000B84206D14FF6FF57394046F4807739435C
:1022F00005E04FF2FF57394044F480773943828339
:102300000184F0BD028B4FF2FF331A400283028B2F
:102310004FF6FF7303EA01231A4302837047F0B5B7
:102320000C461546002200210026078C4FF6EF7C54
:1023300007EA0C070784028B018C4FF6FF7707EA48
:10234000041640F6FF473A404FF6FF7707EA033797
:102350003A434FF6FF7707EA05273A438F4FB842D3
:102360000ED08F4FB8420BD0B0F1804F08D08D4FB8
:10237000B84205D08C4FB84202D08C4FB84206D13B
:102380004FF6DF77394046F01007394305E04FF646
:102390005F77394044F01007394302830184F0BD70
:1023A000028B4FF6F3731A400283028B0A430283B7
:1023B0007047F0B50C46154600220021068C4FF6FA
:1023C000FE773E400684028B018C4FF60C7632403D
:1023D0007E1C06EA03162E433243704EB0420ED0E6
:1023E0006F4EB0420BD0B0F1804F08D06D4EB0426E
:1023F00005D06D4EB04202D06C4EB04206D14FF6C1
:10240000FD76314044F00106314305E04FF6F576A4
:10241000314044F00106314302830184F0BD70B5C0
:1024200005460C465D4885420ED05D4885420BD07E
:10243000B5F1804F08D05B48854205D05A488542A7
:1024400002D05A48854200D100E000BF208850B930
:102450002389A28861882846FFF7ABFFE1882846D8
:10246000FFF79EFF25E0208804280AD12389A2884F
:1024700061882846FFF753FFE1882846FFF742FFAF
:1024800017E0208808280AD12389A2886188284675
:10249000FFF7FBFEE1882846FFF7EEFE09E02389FF
:1024A000A28861882846FFF7A6FEE1882846FFF744
:1024B00095FE70BD2DE9F04105460C46002601272A
:1024C000608808B9022600E00026A088012801D112
:1024D000022700E001272088A0B92389A28861880B
:1024E0002846FFF766FFE1882846FFF759FF238952
:1024F0003A4631462846FFF712FFE1882846FFF7A3
:1025000001FF13E02389A28861882846FFF707FFAF
:10251000E1882846FFF7F6FE23893A4631462846E9
:10252000FFF747FFE1882846FFF73AFFBDE8F08153
:102530000A884B881A438B881A43CB881A430B8925
:102540001A434B891A438B891A43A0F844207047D9
:102550004FF6FF71818000210180C18041800172AE
:1025600070470021018041808180C18001814181CB
:102570008181C181704700210180418001218180DA
:102580000021C1800181704700210180418081804C
:10259000C18001814181818170470000002C014090
:1025A000003401400004004000080040000C0040DE
:1025B00021B1028842F00102028004E002884FF655
:1025C000FE731A400280704731B1B0F8442042F4E3
:1025D0000042A0F8442005E0B0F84420C2F30E0207
:1025E000A0F8442070471AB183890B43838102E02D
:1025F00083898B43838170478182704741EA02035C
:10260000A0F8483070471AB183890B43838102E0F8
:1026100083898B438381704701894FF6F87211409B
:10262000018170470A46002101894FF68F731940D6
:1026300011430181704730B504460D4629462046B6
:10264000FFF7F0FF208940F00700208130BD2DE921
:10265000F04104460D4616461F46602D06D13B4606
:10266000012231462046FFF75AFE05E03B46012293
:1026700031462046FFF79DFE29462046FFF7D2FF50
:10268000208940F007002081BDE8F08130B50C467C
:1026900000210189C9B24FF6FF7505EA03251543EC
:1026A00025432943018130BD2DE9F04105460E4601
:1026B00017469846002443463A4631462846FFF7D7
:1026C000E5FF2C894FF6F870044044F007044FF6FC
:1026D0008F70044044F070042C81BDE8F081F0B5A7
:1026E00004460D4616461F463B46324629462046BE
:1026F000FFF7CCFF208940F480402081F0BD0185A8
:10270000828270470A46002101884FF68F73194074
:10271000114301807047F0B50C4615461E46002156
:10272000002200230189028B038C4FF6F877394091
:1027300021434FF6FC473A4040F201173A434FF627
:10274000DD773B404FF6FF7707EA06172F433B4301
:10275000018102830384F0BD0A460021018B4FF6FC
:102760008F7319401143018370470A460021018B82
:1027700048F6FF7319404FF6FF7303EA022319432B
:10278000018370470A460021818B4FF68F731940F1
:102790001143818370470A460021818B48F6FF73FD
:1027A00019404FF6FF7303EA0223194381837047F0
:1027B00021B1028842F08002028004E002884FF6D4
:1027C0007F731A400280704721B1828842F0040270
:1027D000828004E082884FF6FB731A408280704743
:1027E00021B1828842F00802828004E082884FF69C
:1027F000F7731A408280704721B1828842F001024B
:10280000828004E082884FF6FE731A40828070470F
:102810000A460021018B4FF6F773194011430183DB
:1028200070470A460021018B4FF2FF7319404FF6A3
:10283000FF7303EA02231943018370470A4600210C
:10284000818B4FF6F77319401143818370470A4615
:102850000021818B4FF2FF7319404FF6FF7303EA9B
:1028600002231943818370470A460021018B4FF6EA
:10287000FB7319401143018370470A460021018B05
:102880004FF6FF3319404FF6FF7303EA0223194353
:10289000018370470A460021818B4FF6FB73194074
:1028A0001143818370470A460021818B4FF6FF3325
:1028B00019404FF6FF7303EA0223194381837047DF
:1028C0000A460021018B4FF67F73194011430183A3
:1028D00070470A460021018BC1F30E014FF6FF73CA
:1028E00003EA02231943018370470A460021818BC2
:1028F0004FF67F7319401143818370470A460021C8
:10290000818BC1F30E014FF6FF7303EA02231943D3
:10291000818370470A460021018C4FF6FD731940F0
:102920001143018470470A460021018C4FF6F7736A
:1029300019401143018470470A460021018C4FF66B
:10294000DF7319404FF6FF7303EA02131943018442
:1029500070470A460021018C4FF67F7319404FF6ED
:10296000FF7303EA02131943018470470A460021EA
:10297000018C4FF6FF5319404FF6FF7303EA022311
:102980001943018470470A460021018C4FF2FF73FE
:1029900019404FF6FF7303EA02231943018470477D
:1029A0000A460021018C4DF6FF7319404FF6FF7364
:1029B00003EA023319430184704730B50023012430
:1029C0008C40A3B2048C9C430484048C02FA01F56D
:1029D000ADB22C43048430BD30B5002304248C40B8
:1029E000A3B2048C9C430484048C02FA01F5ADB2BA
:1029F0002C43048430BD70B50346002000241846E3
:102A0000183001258D40ACB21D8CA5431D8409B141
:102A1000082909D100EB6100056825F07005056003
:102A20000568154305600EE00D1FC5F34E052844EB
:102A3000056825F4E045056005684FF6FF7606EA6F
:102A400002263543056070BD21B1028842F00202C2
:102A5000028004E002884FF6FD731A40028070473E
:102A600021B1028842F00402028004E002884FF69D
:102A7000FB731A400280704721B1828842F08002C5
:102A8000828004E082884FF67F731A40828070470C
:102A900002884FF6F7731A40028002880A430280C8
:102AA000704782884FF68F731A40828082880A436B
:102AB0008280704702894FF6F8731A4002810289BA
:102AC0000A430281704702894FF67F731A400281E0
:102AD00002890A430281704781847047818570476B
:102AE000818670470187704781877047A0F8401042
:102AF000704702884FF6FF431A40028002880A435B
:102B0000028070470146888E70470146088F7047E3
:102B10000146888F70470146B1F840007047014672
:102B2000888C70470146088D704702460020138A42
:102B30000B400BB1012000E000207047CA43028225
:102B4000704730B50246002000230024158A05EAAC
:102B50000103958905EA010413B10CB1012000E0DD
:102B6000002030BDCA4302827047000010B5044601
:102B7000FB48844209D101218803FEF719FF002197
:102B80004FF48040FEF714FF32E0F648844209D14A
:102B900001214804FEF719FF00214FF40030FEF731
:102BA00014FF25E0F048844209D101218804FEF792
:102BB0000CFF00214FF48020FEF707FF18E0EB48E0
:102BC000844209D10121C804FEF7FFFE00214FF421
:102BD0000020FEF7FAFE0BE0E548844208D101210F
:102BE0000805FEF7F2FE00214FF48010FEF7EDFE1F
:102BF00010BD2DE9F04786B005460E460024A246DA
:102C000000BFA1460027B08900B100BF2F462C8A23
:102C10004CF6FF700440F08804432C82AC894EF6D9
:102C2000F3100440B0883189084371890843044394
:102C3000AC81AC8A4FF6FF400440B0890443AC82BB
:102C400001A8FEF72EFEC648874202D1DDF810A08B
:102C500001E0DDF80CA0A88900F4004040B10AEBC7
:102C6000CA0000EB0A1031684900B0FBF1F807E038
:102C70000AEBCA0000EB0A1031688900B0FBF1F8DA
:102C80006420B8FBF0F004012009642101FB1089E5
:102C9000A88900F4004040B1322000EBC900B0FB2D
:102CA000F1F000F00700044308E0322000EB0910C7
:102CB0006421B0FBF1F000F00F0004432C8106B05A
:102CC000BDE8F0874FF41651016000218180C1807A
:102CD00001810C21418100218181704710B502469C
:102CE0000020108A4FF2FF0318400B884C882343C2
:102CF0008C882343CC8823431843108210BD0021C5
:102D0000018041808180C180704721B1828942F475
:102D10000052828104E082894DF6FF731A4082815D
:102D20007047F0B50346002400260025002040F639
:102D30006A17B94200D100BF1846C1F3421401F02E
:102D40001F06012707FA06F5012C01D10C3004E01B
:102D5000022C01D1103000E014301AB107682F4363
:102D6000076002E00768AF430760F0BD1AB1838ACD
:102D70000B43838202E0838A8B4383827047028AFB
:102D80004FF6F0731A400282028A0A4302827047A9
:102D900082894FF2FF731A40828182890A438281BD
:102DA000704721B1828942F00202828104E0828967
:102DB0004FF6FD731A4082817047028A4FF6DF7327
:102DC0001A400282028A0A430282704721B1028AB3
:102DD00042F48042028204E0028A4BF6FF731A40FA
:102DE00002827047C1F308028280704701468888DA
:102DF000C0F308007047818941F00101818170476B
:102E0000028BD2B20283028B42EA01220283704714
:102E1000028B02F47F420283028B0A4302837047D3
:102E200021B1828A42F02002828204E0828A4FF637
:102E3000DF731A408282704721B1828A42F0100209
:102E4000828204E0828A4FF6EF731A4082827047D2
:102E500021B1828A42F00802828204E0828A4FF61F
:102E6000F7731A408282704721B1828942F400428E
:102E7000828103E08289C2F30E028281704721B110
:102E8000828A42F40062828204E0828A4FF2FF73F7
:102E90001A4082827047828A4FF6FB731A40828200
:102EA000828A0A438282704721B1828A42F00202FA
:102EB000828204E0828A4FF6FD731A408282704754
:102EC00002460020B1F5007F00D100BF13880B40FF
:102ED0000BB1012000E00020704701F40072B2F550
:102EE000007F00D100BFCA430280704770B5024620
:102EF000002400230025002040F66A16B14200D1CC
:102F000000BFC1F3421501F01F03012606FA03F3C7
:102F1000012D02D19689334006E0022D02D1168A96
:102F2000334001E0968A33400C12012606FA04F47D
:102F30001688344013B10CB1012000E0002070BDB0
:102F400010B50022002340F66A14A14200D100BF50
:102F50000A1201249440A3B2DC43048010BD000097
:102F6000003801400044004000480040004C004050
:102F70000050004010B56FF00400FDF7BEFC2E4875
:102F800000682E49B0FBF1F02D4908700846007822
:102F900000EB4001C1EBC0104FF6FF7101EAC00029
:102FA0002849088010BD0146254A12784A434FF04F
:102FB000E0235A6100229A611A46126942F0010226
:102FC0001A6100BF4FF0E022106900F001021AB14F
:102FD00000F48032002AF5D04FF0E022126922F08E
:102FE00001024FF0E0231A6100229A617047014606
:102FF000144A12884A434FF0E0235A6100229A6132
:103000001A46126942F001021A6100BF4FF0E02235
:10301000106900F001021AB100F48032002AF5D0E4
:103020004FF0E022126922F001024FF0E0231A6112
:1030300000229A61704700000000002000127A0010
:10304000280000202A000020014600BF704700BF72
:10305000494A128802F04002002AF9D0C2B2464B17
:103060001B1D1A80704710B586B00446012144F23A
:103070000400FEF783FC4FF40070ADF81400032049
:103080008DF8160018208DF8170005A93B48FEF7AB
:10309000B9F94FF48060ADF8140004208DF81700E2
:1030A00005A93648FEF7AEF925208DF8000003206B
:1030B0008DF801008DF8020001208DF803006846AC
:1030C000FDF7D1FB01940020ADF80800ADF80A002F
:1030D000ADF80C00ADF810000C20ADF80E0001A901
:1030E0002548FFF786FD012240F225512248FFF7CF
:1030F00018FE01212048FFF708FE06B010BD10B5EC
:1031000040F225511C48FFF7F1FE10B31A48FFF7B3
:103110006DFEC4B21A48008800F40040C8B91848CF
:10312000008800F4804060B10A2C03D000201449CC
:10313000088020E01248008840F4004010490880D0
:1031400019E00D2C06D10E48008840F480400C494F
:10315000088010E00A480088C0F30D0009490C54AB
:1031600007480088401C0649088008460088C72890
:1031700001DD0020088010BD00380140000801403A
:1031800030000020F00300202DE9FE4F00200290C7
:1031900000240FE0ED4830F8240081B2EC48FFF73E
:1031A00021FE00BF4021EA48FFF78AFE0028F9D03F
:1031B000601CC4B2062CEDDB6420FFF718FFE54964
:1031C000E5A010F027FEE948008800F40040002840
:1031D0007ED04FF0010985E0B9F1010F4AD1DD48F9
:1031E00010F80900A8B9E2A010F014FEE3A0102125
:1031F0000B46C822CDE90010AA211E2005F00AFEC8
:103200000020E2490860E2490860E2490860029053
:103210006CE0D04810F80900FF281BD10020029074
:10322000DD490870DDA010F0F5FD4FF6FF70BA2300
:10323000E622AA2100901E2005F040FB7821DA4802
:1032400010F0CBF80020D1490860D1490860D1497D
:1032500008604BE001200290BE4810F80900D349F5
:10326000096801EB4101D04A42F821000020C7491A
:10327000086033E0B9F1020F0ED1B64810F809002A
:10328000CA49096801EB4101C74A02EB8101486064
:103290000020BF49086021E0B9F1030F1ED1AD48FD
:1032A00010F80900C149096801EB4101BE4A02EB6F
:1032B00081018860BD48006800EB400002EB80009F
:1032C0008168BBA010F0A6FD0020B249086000E0B4
:1032D00034E1B6480068401CB449086009F10100B7
:1032E00000F0FF09B9F1040FFFF676AF00BF0298B6
:1032F00001287DD14FF6FF70BA23E622AA21009063
:103300001E2005F0DBFAA948006809280CDD012021
:10331000A14908700020A5490860084602689E4837
:103320000178A7A010F076FDA048006809287DDC90
:1033300099480078002879D1002421E004EB44006A
:10334000994951F820009149096808448F4908605B
:1033500004EB4400944901EB800040688C49096803
:1033600008448B49086004EB44008F4901EB80005E
:10337000806888490968084486490860601CC4B2AE
:103380008A4800688442D9DB8848006810F0BEFA99
:103390000746904A904B10F0CAF9CDE900017B48EE
:1033A000006810F0B3FA0546DDE9002310F031FAA9
:1033B000824610F0F6FA754908607C48006810F003
:1033C000A5FA0546834A844B10F0B1F907468846B2
:1033D0006F48006810F09AFA82463A46434610F069
:1033E00018FACDE9000110F0DCFA6949086000E044
:1033F00094E06E48006810F089FA0746754A764BEB
:1034000010F095F905460E466248006810F07EFA05
:1034100082462A46334610F0FCF9CDE9000110F04F
:10342000C0FA5C4908600846036800E007E05848B5
:1034300002685648016869A010F0ECFC63E05B4844
:10344000006809285FDC5448007801285BD100241B
:1034500021E004EB4400544951F820004B4909682D
:1034600008444A49086004EB44004F4901EB8000DE
:1034700040684749096808444549086004EB44002E
:10348000494901EB80008068424909680844414984
:103490000860601CC4B20A2CDBDB3C48006810F0FA
:1034A00035FA07464FF06632584B10F0B2F9054630
:1034B00010F077FA354908603548006810F026FAB0
:1034C00007464FF06632514B10F0A3F9054610F055
:1034D00068FA2F4908602F48006810F017FA07466D
:1034E0004FF06632494B10F094F9054610F059FA46
:1034F000284908600846036825480268234801688F
:1035000043A010F087FC2348006888B900202149B7
:1035100008601F4908601D49086009E00020234930
:10352000086002901C49087078211F480FF055FF71
:1035300000200E49088001203D4908806420FFF7E3
:1035400056FD1A480078BDE8FE8F000054000020A8
:10355000005000403E050020726563656976652075
:10356000646174613A25730D0A0000007000002048
:10357000C1ACBDD3696E670D0A000000434F4E4ECB
:10358000454354494E472E2E2E00000034000020A3
:10359000380000203C0000204C000020B5F7D5FB8F
:1035A000696E670D0A000000B8040020500000207A
:1035B000BCB4CAB1D0C4C2CAA3BA25640A00000010
:1035C00043543D25642C6E756D6265723D25640D16
:1035D0000A0000007B14AE47E17AF03FC9D9D3DA84
:1035E0003230B8F6CAFDBEDDB5C4B8DFD1B9A3BA72
:1035F00025640A2CB5CDD1B9A3BA25640A2CD0C450
:10360000C2CAA3BA25640D0A0000000066E6244081
:10361000B8DFD1B9A3BA25640A2CB5CDD1B9A3BA04
:1036200025640A2CD0C4C2CAA3BA25640D0A0000BE
:10363000920000204FF48071FD4A516149005161B0
:10364000FC49086080215161116189001161704756
:103650004FF48071F64A116149005161F5490860E3
:1036600080215161116189001161704710B54FF0DF
:103670008830F0490C390860091D08600020ED49C8
:1036800008608815EA4908614000486140204861A7
:10369000E948808848F68911884202D10220FFF764
:1036A00082FCE448001F006884B24020E0490861C1
:1036B000C00008614FF03330DE490C390860091D45
:1036C00008604FF6FF70DB490860204610BD10B55A
:1036D00004460B462046FFF7ADFF4FF48070D449F7
:1036E000086140004861D348036080204861086158
:1036F0008000086110BD10B504462046FFF79AFF10
:10370000FFF7B4FF10BD00B5CB490889FFF792FF62
:1037100000BD4FF48071C64A116149005161C5492D
:10372000086080215161116189001161704730B5D5
:10373000014601F01F04C1F34513CA0AE50205EB77
:1037400043151544A8B230BD00BF011EA0F101020F
:10375000D0B2FAD1704730B504460D46B6488088DD
:1037600049F24131884205D0B348808845F2103192
:10377000884240D1B0494889FFF75CFF4FF4807020
:10378000AB490861400048612012AA4908608020C6
:10379000A749486108618000086140100861400045
:1037A0004861E0B2A34908608020A14948610861EE
:1037B00080000861A0498889FFF73CFF4FF48070C2
:1037C0009B4908614000486128129A49086080209E
:1037D0009749486108618000086140100861400015
:1037E0004861E8B2934908608020914948610861C6
:1037F000800008618CE19048808846F60401884288
:1038000049D18D488079012804D18B480088401E19
:10381000001B84B288494889FFF70CFF4FF4807081
:103820008349086140004861201282490860802075
:103830007F494861086180000861401008614000CC
:103840004861E0B27B49086080207949486108619D
:103850008000086178498889FFF7ECFE4FF480709A
:10386000734908614000486128127249086080204D
:103870006F4948610861800008614010086140009C
:103880004861E8B26B490860802069494861086175
:10389000800008613CE16848808841F663118842F5
:1038A0007ED16548807900283FD163480088401E5A
:1038B000001B84B260494889FFF7BCFE4FF480705A
:1038C0005B4908614000486100205A490860802037
:1038D0005749486108618000086140100861400054
:1038E00048610020534908608020514948610861BF
:1038F00080000861401008614000486120124D4975
:10390000086080204A4948610861800008614010D1
:10391000086140004861E0B246490860802044499F
:10392000486108618000086141E043494889FFF728
:1039300081FE4FF480703E490861400048612012CA
:103940003C49086080203A4948610861800008616C
:103950004010086140004861E0B2364908608020AC
:1039600033494861086180000861401008614000E7
:10397000486131480088401E00122E4908608020AE
:103980002B494861086180000861401008614000CF
:10399000486129480078401EC0B22649086000E00E
:1039A0004CE080202249486108618000086122497A
:1039B0008889FFF73FFE4FF480701D490861400081
:1039C000486128121B490860802019494861086134
:1039D000800008614010086140004861E8B2154964
:1039E0000860802012494861086180000861401029
:1039F00008614000486110484088401E00120D498F
:103A0000086080200A494861086180000861401010
:103A100008614000486108488078401EC0B20549EE
:103A200008608020024948610861800008616FE0F9
:103A3000001001400C0C014030050020F748808840
:103A400045F21051884250D1F4494889FFF7F2FD00
:103A50004FF48070F2490861400048612012F1493A
:103A600008608020EE494861086180000861EB49E8
:103A70004989491C88B2FFF7DDFD4FF48070E849A1
:103A8000086140004861E0B2E64908608020E449EE
:103A90004861086180000861E0498889FFF7CAFD34
:103AA0004FF48070DE490861400048612812DD490A
:103AB00008608020DA494861086180000861D749C0
:103AC0008989491C88B2FFF7B5FD4FF48070D4494D
:103AD000086140004861E8B2D24908608020D049BE
:103AE000486108618000086112E0CC4880790128B3
:103AF00004D1CA480088401E001B84B2C7494889C7
:103B00002146FFF7E4FDC54988892946FFF7DFFD17
:103B100030BD2DE9F04105460E46C0480088A84258
:103B200003DDBE484088B04202DC0020BDE8F081E1
:103B300031462846FFF70FFEB848808849F24131E8
:103B4000884211D0B548808846F6040188420BD0DF
:103B5000B248808845F21031884205D0AF4880884D
:103B600041F66311884203D12E20FFF763FD0DE07B
:103B7000AA48808845F21051884204D14FF4385049
:103B8000FFF758FD02E02220FFF754FD4FF0883088
:103B9000A4490C390860091D08604FF6FF70A1495F
:103BA000086088159E4908614000486140204861CE
:103BB0000220FFF7C9FD9B48001F006884B2402027
:103BC000974908619548808841F66311884210D171
:103BD0004FF40070924908614FF0333091490C392D
:103BE0000860091D08604FF6FF708E490860204686
:103BF0009CE740208A4948610220FFF7A5FD8948DB
:103C0000001F006884B2402085490861834880888D
:103C100049F2413188420BD08048808845F210310A
:103C2000884205D07D48808845F21051884213D1E2
:103C300040207B4948610220FFF786FD7948001F3C
:103C400000681FFA80F8402075490861E7B24FF616
:103C5000FF7000EA07270DE07048808846F60401EF
:103C6000884207D140206E49486108616D48001FB5
:103C7000006884B24FF40070694908614FF0333036
:103C800068490C390860091D08604FF6FF706549E6
:103C900008606248808849F22531884216D05F4822
:103CA000808844F23551884210D05C488088091FD2
:103CB00088420BD05948808848F68911884205D03F
:103CC000564880884BF20551884201D120462DE7A5
:103CD0005248808849F2413188420BD04F48808851
:103CE00045F21031884205D04C48808845F2105189
:103CF000884207D1E012C002B91240EA411040EAFE
:103D0000E82013E72046FFF712FD0FE700B5434810
:103D1000808849F24131884211D04048808846F677
:103D2000040188420BD03D48808845F2103188421A
:103D300005D03A48808841F66311884203D1292092
:103D4000FFF778FC0FE03548808845F21051884233
:103D500004D14FF42450FFF76DFC04E040F27311DE
:103D60000720FFF7B4FC00BD00B52C48808849F25D
:103D70004131884211D02948808846F604018842A2
:103D80000BD02648808845F21031884205D0234860
:103D9000808841F66311884203D12820FFF74AFC4E
:103DA0000EE01E48808845F21051884204D14FF43D
:103DB0002050FFF73FFC03E000210720FFF787FCBE
:103DC00000BDF0B50546002400271448807901287D
:103DD0000BD11248808846F60401884205D00F486E
:103DE000808841F66311884208D10C48807920BB55
:103DF0000A48808841F6631188421ED1082D1BD2E3
:103E0000DFE805F00406080A12141618062513E068
:103E1000072511E004250FE005250DE03005002001
:103E2000001001400C0C0140012505E0002503E0D5
:103E3000032501E0022500BF00BFF848808849F251
:103E40004131884217D0F548808846F604018842FF
:103E500011D0F248808845F2103188420BD0EF48EB
:103E6000808845F21051884205D0EC48808841F6A0
:103E7000631188427ED1082D1CD2DFE805F00406CC
:103E8000090C0F12151800BF14E044F0800411E073
:103E900044F040040EE044F0C0040BE044F0200481
:103EA00008E044F0600405E044F0A00402E044F0BF
:103EB000E00400BF00BFD948808845F21051884215
:103EC00002D14FF4585700E03627D448808845F295
:103ED000103188420DD0D148808845F21051884277
:103EE00007D0CE48808841F66311884201D044F063
:103EF0000804CA48808846F60401884201D144F08B
:103F0000020421463846FFF7E2FBC448808841F6A8
:103F1000631188421DD004F0200068B1BF480088BA
:103F2000BE494988884214DABC4806884088BB49A3
:103F30000880084646800CE0B8480088B7494988A0
:103F4000884206DDB54806884088B449088008469E
:103F50004680B248808845F2105188427ED1AF49F0
:103F60004889FFF767FB4FF48070AD490861400056
:103F7000486100E029E10020AA4908608020A849A2
:103F80004861086180000861A4494989491C88B2D8
:103F9000FFF750FB4FF48070A14908614000486171
:103FA0000020A049086080209D4948610861800088
:103FB00008619A494989891C88B2FFF73BFB4FF495
:103FC0008070974908614000486194480088401E0D
:103FD000001294490860802091494861086180007E
:103FE00008618E494989C91C88B2FFF723FB4FF449
:103FF00080708B4908614000486188480078401E05
:10400000C0B2884908608020854948610861800005
:10401000086182498889FFF70DFB4FF48070804961
:1040200008614000486100207E49086080207C498A
:10403000486108618000086178498989491C88B213
:10404000FFF7F8FA4FF48070754908614000486145
:104050000020744908608020714900E034E0486124
:104060000861800008616D498989891C88B2FFF761
:10407000E1FA4FF480706A4908614000486167487E
:104080004088401E001267490860802064494861EA
:1040900008618000086161498989C91C88B2FFF7FD
:1040A000C9FA4FF480705E490861400048615B487E
:1040B0008078401EC0B25B49086080205849486142
:1040C000086180000861A7E054494889FFF7B2FA07
:1040D0004FF4807052490861400048610020514906
:1040E000086080204E4948610861800008614010E6
:1040F00008614000486100204A4908608020484922
:104100004861086180000861401008614000486112
:1041100042480088401E0012424908608020404901
:1041200048610861800008614010086140004861F2
:104130003A480078401EC0B23A49086080203849A9
:10414000486108618000086134498889FFF772FA84
:104150004FF48070324908614000486100203149C5
:10416000086080202E494861086180000861401085
:1041700008614000486100202A49086080202849E1
:104180004861086180000861401008614000486192
:1041900022484088401E00122249086080202049A1
:1041A0004861086180000861401008614000486172
:1041B0001A488078401EC0B21A4908608020184909
:1041C000486108618000086126E0082D1CD2DFE804
:1041D00005F004070A0D0F12151844F0300413E01F
:1041E00044F0100410E044F020040DE000BF0BE0A8
:1041F00044F0380408E044F0280405E044F01804D2
:1042000002E044F0080400BF00BF032744F48054D8
:1042100021463846FFF75BFAF0BD0000300500206C
:10422000001001400C0C014030B504460D462946F3
:104230002046FFF790FAFFF766FA4FF48070FE49C8
:10424000086140004861FD480088FD490860802001
:10425000F949486108618000086130BD70B50446C5
:104260000D461646F748808849F24131884205D00C
:10427000F448808845F21031884240D1F14948899C
:10428000FFF7D8F94FF48070EB49086140004861AE
:104290002012EB4908608020E749486108618000EE
:1042A00008614010086140004861E0B2E4490860DC
:1042B0008020E1494861086180000861E1498889FE
:1042C000FFF7B8F94FF48070DB490861400048619E
:1042D0002812DB4908608020D749486108618000C6
:1042E00008614010086140004861E8B2D4490860A4
:1042F0008020D14948610861800008613DE1D148D2
:10430000808845F21051884250D1CE494889FFF744
:1043100091F94FF48070C84908614000486120124B
:10432000C74908608020C44948610861800008616D
:10433000C4494989491C88B2FFF77CF94FF4807061
:10434000BD49086140004861E0B2BD490860802075
:10435000B9494861086180000861BA498889FFF756
:1043600069F94FF48070B44908614000486128122F
:10437000B34908608020B049486108618000086145
:10438000B0498989491C88B2FFF754F94FF480700D
:10439000A949086140004861E8B2A9490860802045
:1043A000A5494861086180000861E6E0A548808869
:1043B00041F6631188427DD1A248807920B9A14895
:1043C0000088401E001B84B29E494889FFF732F9DD
:1043D0004FF4807098490861400048612012984964
:1043E000086080209449486108618000086140109D
:1043F000086140004861E0B29149086080208E4920
:10440000486108618000086140100861400048610F
:1044100020128B490860802087494861086180002C
:1044200008614010086140004861E0B284490860BA
:10443000802081494861086180000861814988893C
:10444000FFF7F8F84FF480707B490861400048613D
:1044500028127B4908608020774948610861800004
:1044600008614010086140004861E8B27449086082
:10447000802071494861086180000861401008612E
:104480004000486128126E49086080206A494861EE
:104490000861800008614010086140004861E8B28E
:1044A00067490860802064494861086180000861AC
:1044B00063E0FFE76348808846F60401884249D1FB
:1044C00060488079012804D15E480088401E001BA6
:1044D00084B25C494889FFF7ADF84FF480705649C3
:1044E0000861400048612012554908608020524907
:1044F000486108618000086140100861400048611F
:10450000E0B24F49086080204B4948610861800053
:1045100008614C498889FFF78DF84FF4807046494F
:1045200008614000486128124549086080204249DE
:1045300048610861800008614010086140004861DE
:10454000E8B23F49086080203B494861086180002B
:10455000086112E03B488079012804D1394800887D
:10456000401E001B84B2374948892146FFF7AFF847
:10457000344988892946FFF7AAF84FF480702E49FC
:104580004861400048612F4800892D49086080201B
:1045900029494861086180000861401008614000B5
:1045A00048612748066080204861086180000861F2
:1045B00070BD2DE9F0410446BE20FFF73BF84FF4F3
:1045C00080701D4908614000486105201C49086051
:1045D0008020194948610861800008614010086125
:1045E0004000486120460FF0A2F905464FF06632C0
:1045F000154B0FF09CF807460FF0F2F910490860D0
:1046000080200D4948610861800008614010086100
:104610004000486101200A4908608020064948613D
:104620000861800008614010086140004861FF2077
:1046300003490860802009E0001001406C00002060
:104640000C0C01403005002066660440FE494861BC
:104650000861800008614010086140004861002046
:10466000FA4908608020F8494861086180000861C3
:1046700040100861400048610020F4490860802033
:10468000F1494861086180000861BDE8F08110B51A
:104690000446002C66D1EE498871F02008804FF462
:1046A000A07048800846808849F2413188420BD08A
:1046B000E748808846F60401884205D0E4488088AF
:1046C00045F2103188421AD12C20E14908812A2074
:1046D00048812B2088810846808846F6040188425C
:1046E00005D0DB48808845F21031884206D14FF46E
:1046F000A070D74908804FF4F0704880A1E0D448FA
:10470000808845F21051884210D14FF43050D04982
:1047100008814FF4285048814FF42C5088814FF481
:10472000F07008804FF4487048808AE0C84880885C
:1047300041F6631188420DD12C20C54908812B20F8
:1047400048812A2088814FF4F07008804FF4487027
:10475000488076E02220BE4908812020488121201F
:1047600088816EE00120BA4988714FF4A0700880FA
:10477000F02048800846808849F24131884205D0BF
:10478000B348808845F21031884207D12C20B049C7
:1047900008812A2048812B2088813FE0AC4880880E
:1047A00046F60401884207D12C20A94908812B2014
:1047B00048812A20888131E0A548808845F210513F
:1047C000884210D14FF43050A14908814FF428504D
:1047D00048814FF42C5088814FF4487008804FF482
:1047E000F07048801AE09A48808841F66311884248
:1047F0000DD12C20964908812A2048812B208881C0
:104800004FF4487008804FF4F070488006E0222092
:104810008F49088121204881202088818C48808808
:1048200046F60401884205D08948808845F2103157
:10483000884206D14FF4F070854908804FF4A0708B
:1048400048800020FFF7BDFA10BD2DE9F04F86B07B
:1048500004460D469046994604EB0800401E86B279
:1048600005EB0900401E87B27948808849F2413142
:10487000884215D07648808845F2103188420FD0A2
:104880007348808846F60401884209D070488079D0
:1048900001287BD16E48808841F66311884275D12A
:1048A0006B494889FEF7C6FE4FF48070664908617F
:1048B00040004861201265490860802062494861D3
:1048C0000861800008614010086140004861E0B262
:1048D0005E49086080205C49486108618000086189
:1048E000401008614000486130125849086080203B
:1048F0005549486108618000086140100861400026
:104900004861F0B25149086080204F494861086110
:10491000800008614E498889FEF78CFE4FF4807054
:1049200049490861400048612812484908608020D0
:1049300045494861086180000861401008614000F5
:104940004861E8B24149086080203F4948610861F8
:1049500080000861401008614000486138123B49FE
:104960000860802038494861086180000861401073
:10497000086140004861F8B234490860802032493B
:10498000486108618000086177E1FFE7304880886E
:1049900041F6631188427DD12D480088A0EB0800C4
:1049A000001B84B205EB0900401E1FFA80F928495C
:1049B0004889FEF73FFE4FF48070234908614000AC
:1049C000486120122149086080201F494861086120
:1049D000800008614010086140004861E0B21B4956
:1049E0000860802018494861086180000861401013
:1049F00008614000486104EB0800401E00121349A2
:104A000008608020104948610861800008614010FA
:104A100008614000486104EB0800401EC0B20B4929
:104A200008608020084948610861800008610849E1
:104A30008889FEF7FFFD4FF480700349086140004C
:104A400048612812014905E0001001400C0C0140AA
:104A50003005002008608020FE4948610861800020
:104A600008614010086140004861E8B2FA490860F6
:104A70008020F849486108618000086140100861A1
:104A8000400048614FEA2920F34908608020F1493D
:104A9000486100E011E00861800008614010086191
:104AA0004000486109F0FF00EB4908608020E949B7
:104AB0004861086180000861DFE0E848808845F2CD
:104AC000105188427ED1E5494889FEF7B3FD4FF485
:104AD0008070E0490861400048612012DE490860AA
:104AE0008020DC494861086180000861DB49498910
:104AF000491C88B2FEF79EFD4FF48070D5490861CD
:104B000040004861E0B2D44908608020D149486142
:104B1000086180000861D1494989891C88B2FEF783
:104B200089FD4FF48070CB49086140004861301224
:104B3000C94908608020C749486108618000086150
:104B4000C6494989C91C88B2FEF774FD4FF48070CC
:104B5000C049086140004861F0B2BF490860802048
:104B6000BC494861086180000861BC498889FEF73A
:104B700061FD4FF48070B749086140004861281218
:104B8000B54908608020B349486108618000086128
:104B9000B2498989491C88B2FEF74CFD4FF48070F8
:104BA000AC49086140004861E8B2AB490860802028
:104BB000A8494861086180000861A8498989891C61
:104BC00088B200E026E0FEF735FD4FF48070A14981
:104BD00008614000486138129F49086080209D4963
:104BE00048610861800008619C498989C91C88B2B4
:104BF000FEF720FD4FF4807096490861400048613F
:104C0000F8B29549086080209249486108618000A7
:104C1000086132E09148807901280ED1AA46BB464E
:104C20008E480088801B401E80B201908B4800880F
:104C3000001B401E80B2009003E0A246B3460195DF
:104C4000009750200590512004905220039053204B
:104C5000029051460598FEF73AFD59460498FEF732
:104C600036FD01990398FEF732FD00990298FEF790
:104C70002EFD29462046FEF76EFD06B0BDE8F08FFA
:104C800070B504460026754805884088454373483A
:104C9000808846F60401884216D170488079012840
:104CA00012D100206D4988712A2048812B208881EB
:104CB00000210846FEF74FFD0120684988712B202E
:104CC00048812A20888103E000210846FEF743FD41
:104CD000FEF719FD00260DE04FF480705D49086174
:104CE000400048615C4804608020486108618000A1
:104CF0000861761CAE42EFD370BD08B501211920C2
:104D0000FCF73CFE01215648FCF74DFC4FF4F860DF
:104D1000ADF8000010208DF8030003208DF802008C
:104D200069464C48FCF76EFB4FF4F8614948FCF7C4
:104D300016FC4FF6FF70ADF80000694646480C3887
:104D4000FCF760FB4FF6FF7143480C38FCF707FC9B
:104D50003220FEF74CF901210020FEF7B8FC32208A
:104D6000FEF745F90020FEF7C6FC3C49888008465E
:104D70008088FF280ADB084680884FF6FF7188424A
:104D800004D036488088B0F5134F62D1D320FEF7A7
:104D900051FCFEF76BFCFEF769FCFEF767FC2F4940
:104DA0008880084680884FF6FF7101EA00202B4971
:104DB0008880FEF75BFC2949898808432749888059
:104DC0000846808849F24131884242D0BF20FEF730
:104DD00031FCFEF74BFCFEF749FCFEF747FCFEF703
:104DE00045FC1E498880084680884FF6FF7101EA1D
:104DF00000201A498880FEF739FC18498988084341
:104E0000164988800846808846F6040188427CD08E
:104E1000D420FEF70FFCFEF729FCFEF727FCFEF777
:104E200025FC0E498880084680884FF6FF7101EA0C
:104E300000200A498880FEF719FC08498988084340
:104E4000064988800846808845F2103188425CD047
:104E500008E05AE0001001400C0C01403005002031
:104E6000000230004FF45A40FEF7E4FBFEF7FEFB71
:104E70004FF45B40FEF7DEFBFEF7F8FBFE4988804F
:104E8000084680884FF6FF7101EA0020FA498880C1
:104E90004FF45C40FEF7CEFBFEF7E8FBF64989884D
:104EA0000843F549888008468088B0F5004F02D154
:104EB00045F210508880F048808845F210518842B1
:104EC00023D0A120FEF7B6FBFEF7D0FBEA4988808D
:104ED000FEF7CCFBE8498880084680884FF6FF71D2
:104EE00001EA0020E4498880FEF7C0FBE249898896
:104EF0000843E14988800846808845F2617188420C
:104F000003D141F66310DC498880DB488188DBA04F
:104F10000EF080FFD848808849F2413188427CD128
:104F2000CF20FEF787FB0020FEF792FBC120FEF7A3
:104F30008FFB3020FEF78CFBED20FEF77BFB64201F
:104F4000FEF786FB0320FEF783FB1220FEF780FBB3
:104F50008120FEF77DFBE820FEF76CFB8520FEF745
:104F600077FB1020FEF774FB7A20FEF771FBCB2055
:104F7000FEF760FB3920FEF76BFB2C20FEF768FB89
:104F80000020FEF765FB3420FEF762FB0220FEF7EF
:104F90005FFBF720FEF74EFB2020FEF759FBEA20CF
:104FA000FEF748FB0020FEF753FB0020FEF750FB06
:104FB000C020FEF73FFB1B20FEF74AFBC120FEF797
:104FC00039FB0120FEF744FBC520FEF733FB302000
:104FD000FEF73EFB3020FEF73BFBC720FEF72AFB27
:104FE000B720FEF735FB3620FEF724FB4820FEF7FE
:104FF0002FFB3A20FEF71EFB5520FEF729FBB120C0
:10500000FEF718FB0020FEF723FB1A20FEF720FB1B
:10501000B620FEF70FFB0A2000E099E0FEF718FB30
:10502000A220FEF715FBF220FEF704FB0020FEF79E
:105030000FFB2620FEF7FEFA0120FEF709FBE02019
:10504000FEF7F8FA0F20FEF703FB2A20FEF700FB1D
:105050002820FEF7FDFA0820FEF7FAFA0E20FEF7E8
:10506000F7FA0820FEF7F4FA5420FEF7F1FAA92027
:10507000FEF7EEFA4320FEF7EBFA0A20FEF7E8FA15
:105080000F20FEF7E5FA0020FEF7E2FA0020FEF717
:10509000DFFA0020FEF7DCFA0020FEF7D9FAE12063
:1050A000FEF7C8FA0020FEF7D3FA1520FEF7D0FA73
:1050B0001720FEF7CDFA0720FEF7CAFA1120FEF7F7
:1050C000C7FA0620FEF7C4FA2B20FEF7C1FA5620D5
:1050D000FEF7BEFA3C20FEF7BBFA0520FEF7B8FA51
:1050E0001020FEF7B5FA0F20FEF7B2FA3F20FEF7C8
:1050F000AFFA3F20FEF7ACFA0F20FEF7A9FA2B20FB
:10510000FEF798FA0020FEF7A3FA0020FEF7A0FAB7
:105110000120FEF79DFA3F20FEF79AFA2A20FEF7BB
:1051200089FA0020FEF794FA0020FEF791FA002099
:10513000FEF78EFAEF20FEF78BFA1120FEF77AFACF
:105140007820FDF754FF2920FEF774FA03F0A5BB81
:105150004948808846F6040188427CD11120FEF738
:1051600069FA1420FDF743FFD020FEF763FA072009
:10517000FEF76EFA4220FEF76BFA1D20FEF768FA82
:10518000D120FEF757FA0020FEF762FA1A20FEF748
:105190005FFA0920FEF75CFAD220FEF74BFA0120F5
:1051A000FEF756FA2220FEF753FAC020FEF742FA25
:1051B0001020FEF74DFA3B20FEF74AFA0020FEF7DA
:1051C00047FA0220FEF744FA1120FEF741FAC52003
:1051D000FEF730FA0320FEF73BFAC820FEF72AFA62
:1051E0000020FEF735FA2520FEF732FA2120FEF7DF
:1051F0002FFA0520FEF72CFA0020FEF729FA0A20E4
:10520000FEF726FA6520FEF723FA2520FEF720FA9E
:105210007720FEF71DFA5020FEF71AFA0F20FEF74E
:1052200017FA0020FEF714FAF820FEF703FA01201F
:10523000FEF70EFAFE20FEF7FDF90020FEF708FA51
:105240000220FEF705FA2020FEF7F4F93620FEF7DB
:10525000F1F9082000E037E0FEF7FAF93A20FEF70E
:10526000E9F95520FEF7F4F92B20FEF7E3F90020C9
:10527000FEF7EEF9002009E030050020204C434401
:105280002049443A25780D0A00000000FEF7E0F9B5
:105290000120FEF7DDF93F20FEF7DAF92A20FEF7BC
:1052A000C9F90020FEF7D4F90020FEF7D1F901205A
:1052B000FEF7CEF9DF20FEF7CBF97820FDF797FE59
:1052C0002920FEF7B7F941E7FE48808845F2103102
:1052D000884240F07C87ED20FEF7ACF90120FEF714
:1052E000B7F9FE20FEF7B4F9EE20FEF7A3F9DE20B1
:1052F000FEF7AEF92120FEF7ABF9F120FEF79AF99F
:105300000120FEF7A5F9DF20FEF794F91020FEF743
:105310009FF9C420FEF78EF98F20FEF799F9C62079
:10532000FEF788F90020FEF793F9E220FEF790F9E6
:10533000E220FEF78DF9E220FEF78AF9BF20FEF7A2
:1053400079F9AA20FEF784F9B020FEF773F90D2051
:10535000FEF77EF90020FEF77BF90D20FEF778F9C5
:105360000020FEF775F91120FEF772F90020FEF714
:105370006FF91920FEF76CF90020FEF769F921207A
:10538000FEF766F90020FEF763F92D20FEF760F9BD
:105390000020FEF75DF93D20FEF75AF90020FEF7E8
:1053A00057F95D20FEF754F90020FEF751F95D2012
:1053B000FEF74EF90020FEF74BF9B120FEF73AF95F
:1053C0008020FEF745F90020FEF742F98B20FEF71A
:1053D0003FF90020FEF73CF99620FEF739F900204E
:1053E000FEF736F9B220FEF725F90020FEF730F976
:1053F0000020FEF72DF90220FEF72AF90020FEF723
:1054000027F90320FEF724F90020FEF721F9B32045
:10541000FEF710F90020FEF71BF90020FEF718F93F
:105420000020FEF715F90020FEF712F90020FEF724
:105430000FF90020FEF70CF90020FEF709F9002013
:10544000FEF706F90020FEF703F90020FEF700F949
:105450000020FEF7FDF80020FEF7FAF80020FEF726
:10546000F7F80020FEF7F4F80020FEF7F1F800202E
:10547000FEF7EEF80020FEF7EBF80020FEF7E8F864
:105480000020FEF7E5F80020FEF7E2F80020FEF726
:10549000DFF80020FEF7DCF80020FEF7D9F8002046
:1054A000FEF7D6F8B420FEF7C5F88B20FEF7D0F84B
:1054B0000020FEF7CDF89620FEF7CAF80020FEF790
:1054C000C7F8A120FEF7C4F80020FEF7C1F8B52008
:1054D000FEF7B0F80220FEF7BBF80020FEF7B8F8A0
:1054E0000320FEF7B5F80020FEF7B2F80420FEF71F
:1054F000AFF80020FEF7ACF8B620FEF79BF80020CE
:10550000FEF7A6F80020FEF7A3F8B720FEF792F802
:105510000020FEF79DF80020FEF79AF83F20FEF7E6
:1055200097F80020FEF794F85E20FEF791F800202F
:10553000FEF78EF86420FEF78BF80020FEF788F85F
:105540008C20FEF785F80020FEF782F8AC20FEF7ED
:105550007FF80020FEF77CF8DC20FEF779F80020C9
:10556000FEF776F87020FEF773F80020FEF770F86B
:105570009020FEF76DF80020FEF76AF8EB20FEF7AA
:1055800067F80020FEF764F8DC20FEF761F80020E1
:10559000FEF75EF8B820FEF74DF80020FEF758F849
:1055A0000020FEF755F80020FEF752F80020FEF725
:1055B0004FF80020FEF74CF80020FEF749F80020D5
:1055C000FEF746F80020FEF743F8BA20FEF732F85F
:1055D0002420FEF73DF80020FEF73AF80020FEF701
:1055E00037F80020FEF734F8C120FEF723F820201A
:1055F000FEF72EF80020FEF72BF85420FEF728F8CF
:105600000020FEF725F8FF20FEF722F80020FEF725
:105610001FF8C220FEF70EF80A20FEF719F8002046
:10562000FEF716F80420FEF713F80020FEF710F836
:10563000C320FDF7FFFF3C20FEF70AF80020FEF72D
:1056400007F83A20FEF704F80020FEF701F83920A9
:10565000FDF7FEFF0020FDF7FBFF3720FDF7F8FF09
:105660000020FDF7F5FF3C20FDF7F2FF0020FDF7DD
:10567000EFFF3620FDF7ECFF0020FDF7E9FF3220B9
:10568000FDF7E6FF0020FDF7E3FF2F20FDF7E0FF29
:105690000020FDF7DDFF2C20FDF7DAFF0020FDF7ED
:1056A000D7FF2920FDF7D4FF0020FDF7D1FF2620EA
:1056B000FDF7CEFF0020FDF7CBFF2420FDF7C8FF4C
:1056C000002001E030050020FDF7C2FF2420FDF797
:1056D000BFFF0020FDF7BCFF2320FDF7B9FF00202E
:1056E000FDF7B6FF3C20FDF7B3FF0020FDF7B0FF4C
:1056F0003620FDF7ADFF0020FDF7AAFF3220FDF7B1
:10570000A7FF0020FDF7A4FF2F20FDF7A1FF002039
:10571000FDF79EFF2C20FDF79BFF0020FDF798FF73
:105720002920FDF795FF0020FDF792FF2620FDF7C9
:105730008FFF0020FDF78CFF2420FDF789FF00205C
:10574000FDF786FF2420FDF783FF0020FDF780FF93
:105750002320FDF77DFF0020FDF77AFFC420FDF731
:1057600069FF6220FDF774FF0020FDF771FF05203F
:10577000FDF76EFF0020FDF76BFF8420FDF768FF4B
:105780000020FDF765FFF020FDF762FF0020FDF728
:105790005FFF1820FDF75CFF0020FDF759FFA420F4
:1057A000FDF756FF0020FDF753FF1820FDF750FFCF
:1057B0000020FDF74DFF5020FDF74AFF0020FDF7C8
:1057C00047FF0C20FDF744FF0020FDF741FF1720A5
:1057D000FDF73EFF0020FDF73BFF9520FDF738FF6A
:1057E0000020FDF735FFF320FDF732FF0020FDF725
:1057F0002FFFE620FDF72CFF0020FDF729FFC52035
:10580000FDF718FF3220FDF723FF0020FDF720FFF2
:105810004420FDF71DFF0020FDF71AFF6520FDF76E
:1058200017FF0020FDF714FF7620FDF711FF002081
:10583000FDF70EFF8820FDF70BFF0020FDF708FFA6
:10584000C620FDF7F7FE2020FDF702FF0020FDF740
:10585000FFFE1720FDF7FCFE0020FDF7F9FE0120FA
:10586000FDF7F6FE0020FDF7F3FEC720FDF7E2FE90
:105870000020FDF7EDFE0020FDF7EAFE0020FDF719
:10588000E7FE0020FDF7E4FEC820FDF7D3FE002070
:10589000FDF7DEFE0020FDF7DBFE0020FDF7D8FE61
:1058A0000020FDF7D5FEC920FDF7C4FE0020FDF75E
:1058B000CFFE0020FDF7CCFE0020FDF7C9FE002042
:1058C000FDF7C6FE0020FDF7C3FE0020FDF7C0FE79
:1058D0000020FDF7BDFE0020FDF7BAFE0020FDF719
:1058E000B7FE0020FDF7B4FE0020FDF7B1FE00205A
:1058F000FDF7AEFE0020FDF7ABFE0020FDF7A8FE91
:105900000020FDF7A5FE0020FDF7A2FEE020FDF738
:1059100091FE1620FDF79CFE0020FDF799FE1C204D
:10592000FDF796FE0020FDF793FE2120FDF790FE87
:105930000020FDF78DFE3620FDF78AFE0020FDF7E2
:1059400087FE4620FDF784FE0020FDF781FE5220F1
:10595000FDF77EFE0020FDF77BFE6420FDF778FE5C
:105960000020FDF775FE7A20FDF772FE0020FDF79E
:105970006FFE8B20FDF76CFE0020FDF769FE99207D
:10598000FDF766FE0020FDF763FEA820FDF760FE30
:105990000020FDF75DFEB920FDF75AFE0020FDF75F
:1059A00057FEC420FDF754FE0020FDF751FECA202B
:1059B000FDF74EFE0020FDF74BFED220FDF748FE1E
:1059C0000020FDF745FED920FDF742FE0020FDF73F
:1059D0003FFEE020FDF73CFE0020FDF739FEF320FE
:1059E000FDF736FE0020FDF733FEE120FDF722FE35
:1059F0001620FDF72DFE0020FDF72AFE1C20FDF7E6
:105A000027FE0020FDF724FE2220FDF721FE0020C6
:105A1000FDF71EFE3620FDF71BFE0020FDF718FEE9
:105A20004520FDF715FE0020FDF712FE5220FDF780
:105A30000FFE0020FDF70CFE6420FDF709FE00209C
:105A4000FDF706FE7A20FDF703FE0020FDF700FEBD
:105A50008B20FDF7FDFD0020FDF7FAFD9920FDF7F5
:105A6000F7FD0020FDF7F4FDA820FDF7F1FD002073
:105A7000FDF7EEFDB920FDF7EBFD0020FDF7E8FD99
:105A8000C420FDF7E5FD0020FDF7E2FDCA20FDF78B
:105A9000DFFD0020FDF7DCFDD220FDF7D9FD002061
:105AA000FDF7D6FDD820FDF7D3FD0020FDF7D0FD92
:105AB000E020FDF7CDFD0020FDF7CAFDF320FDF746
:105AC000C7FD0020FDF7C4FDE220FDF7B3FD052072
:105AD000FDF7BEFD0020FDF7BBFD0B20FDF7B8FD77
